:020000040000FA
:0600000084EF17F012006E
:020006001200E6
:060008005AEF12F0120095
:02000E000400EC
:10001000802F00006000000050000000702F0000E2
:1000200000010000100000002C2F0000B0000000B4
:1000300044000000242F0000100100000800000010
:10004000D9CFE6FFE1CFD9FF080EE126DE6ADE6AEE
:10005000DE6ADD6ADD52DD52040EDB6A050EDB6A04
:10006000060EDB6A070EDB6AFD0EDBCFE9FFFE0E34
:10007000DBCFEAFF040EE926000EEA22EECF14F0F1
:10008000EECF15F0EECF16F0EFCF17F014C10AF057
:1000900015C10BF016C10CF017C10DF014C005F01E
:1000A00015C006F016C007F017C008F099EC0EF066
:1000B000040E05C0DBFF050E06C0DBFF060E07C001
:1000C000DBFF070E08C0DBFFFD0EDBCFE9FFFE0EF6
:1000D000DBCFEAFF040EE926000EEA22EECF14F091
:1000E000EECF15F0EECF16F0EFCF17F00A6A0B6ADD
:1000F0000C6A0D6A14C005F015C006F016C007F0B2
:1001000017C008F035EC0FF0010A1EE0040EDBCF3B
:1001100018F0050EDBCF19F0060EDBCF1AF0070E34
:10012000DBCF1BF00A6A0B6A800E0C6E3F0E0D6E61
:1001300018C005F019C006F01AC007F01BC008F07F
:1001400045EC0FF0010A27E1FD0EDBCFE9FFFE0EC3
:10015000DBCFEAFFEECFDFFF010EEECFDBFF020EBB
:10016000EECFDBFF030EEECFDBFFFD0EDBCFE9FFB3
:10017000FE0EDBCFEAFF080EE926000EEA22DFCFF3
:10018000EEFF010EDBCFEEFF020EDBCFEEFF030E24
:10019000DBCFEEFFB2D0FD0EDBCFE9FFFE0EDBCFF3
:1001A000EAFFEECF18F0EECF19F0EECF1AF0EFCF56
:1001B0001BF0FD0EDBCFE9FFFE0EDBCFEAFF080EE2
:1001C000E926000EEA22EECF1CF0EECF1DF0EECFB6
:1001D0001EF0EFCF1FF01CC00AF01DC00BF01EC0B8
:1001E0000CF01FC00DF018C005F019C006F01AC0C1
:1001F00007F01BC008F0AFEC0DF005C014F006C00E
:1002000015F007C016F008C017F0FD0EDBCFE9FFB0
:10021000FE0EDBCFEAFF040EE926000EEA22EECF47
:1002200024F0EECF25F0EECF26F0EFCF27F014C16B
:100230000AF015C10BF016C10CF017C10DF024C067
:1002400005F025C006F026C007F027C008F099EC9D
:100250000EF005C020F006C021F007C022F008C053
:1002600023F020C00AF021C00BF022C00CF023C004
:100270000DF014C005F015C006F016C007F017C049
:1002800008F046EC0EF005C0DEFF06C0DEFF07C03A
:10029000DEFF08C0DDFFDD52DD52D9CFE9FFDACF46
:1002A000EAFFEECF14F0EECF15F0EECF16F0EFCF61
:1002B00017F0FD0EDBCFE9FFFE0EDBCFEAFF080EE5
:1002C000E926000EEA22EECF05F0EECF06F0EECFE3
:1002D00007F0EFCF08F014C00AF015C00BF016C0FD
:1002E0000CF017C00DF0B0EC0DF008C0EDFF07C02A
:1002F000EDFF06C0EDFF05C0EFFFFD0EDBCFE9FF10
:10030000FE0EDBCFEAFF080EE926000EEA22EECF52
:1003100014F0EECF15F0EECF16F0EFCF17F014C0BB
:1003200004F015C005F016C006F017C007F0080E5F
:10033000E15C03E200D0E16AE552E16EE552E7CF0D
:10034000D9FF1200D9CFE6FFE1CFD9FF0C0EE1268D
:10035000DE6ADE6ADE6ADD6ADD52DD52040EDB6AC9
:10036000050EDB6A060EDB6A070EDB6A080EDB6A27
:10037000090EDB6A0A0EDB6A0B0EDB6AFD0EDBCFB1
:10038000E9FFFE0EDBCFEAFF040EE926000EEA22AB
:10039000EECF14F0EECF15F0EECF16F0EFCF17F052
:1003A00014C10AF015C10BF016C10CF017C10DF005
:1003B00014C005F015C006F016C007F017C008F00D
:1003C00099EC0EF0040E05C0DBFF050E06C0DBFF46
:1003D000060E07C0DBFF070E08C0DBFFFD0EDBCFFC
:1003E000E9FFFE0EDBCFEAFF080EE926000EEA2247
:1003F000EECF14F0EECF15F0EECF16F0EFCF17F0F2
:1004000014C10AF015C10BF016C10CF017C10DF0A4
:1004100014C005F015C006F016C007F017C008F0AC
:1004200099EC0EF0080E05C0DBFF090E06C0DBFFDD
:100430000A0E07C0DBFF0B0E08C0DBFFFD0EDBCF93
:10044000E9FFFE0EDBCFEAFF040EE926000EEA22EA
:10045000EECF14F0EECF15F0EECF16F0EFCF17F091
:100460000A6A0B6A0C6A0D6A14C005F015C006F022
:1004700016C007F017C008F035EC0FF0010A1EE0B7
:10048000040EDBCF18F0050EDBCF19F0060EDBCF24
:100490001AF0070EDBCF1BF00A6A0B6A800E0C6E97
:1004A0003F0E0D6E18C005F019C006F01AC007F017
:1004B0001BC008F045EC0FF0010A12E1FD0EDBCF86
:1004C000E9FFFE0EDBCFEAFFEECFDFFF010EEECF3E
:1004D000DBFF020EEECFDBFF030EEECFDBFF82D0A1
:1004E000FD0EDBCFE9FFFE0EDBCFEAFFEECF18F00B
:1004F000EECF19F0EECF1AF0EFCF1BF0FD0EDBCFF1
:10050000E9FFFE0EDBCFEAFF0C0EE926000EEA2221
:10051000EECF1CF0EECF1DF0EECF1EF0EFCF1FF0B0
:100520001CC00AF01DC00BF01EC00CF01FC00DF067
:1005300018C005F019C006F01AC007F01BC008F07B
:10054000AFEC0DF005C014F006C015F007C016F0B2
:1005500008C017F0FD0EDBCFE9FFFE0EDBCFEAFF90
:10056000040EE926000EEA22EECF24F0EECF25F0AD
:10057000EECF26F0EFCF27F014C10AF015C10BF033
:1005800016C10CF017C10DF024C005F025C006F00F
:1005900026C007F027C008F099EC0EF005C020F047
:1005A00006C021F007C022F008C023F020C00AF0E6
:1005B00021C00BF022C00CF023C00DF014C005F0D8
:1005C00015C006F016C007F017C008F046EC0EF094
:1005D00005C0DEFF06C0DEFF07C0DEFF08C0DDFF8E
:1005E000DD52DD52D9CFE9FFDACFEAFFEECF14F0CA
:1005F000EECF15F0EECF16F0EFCF17F0FD0EDBCFFC
:10060000E9FFFE0EDBCFEAFF0C0EE926000EEA2220
:10061000EECF05F0EECF06F0EECF07F0EFCF08F00B
:1006200014C00AF015C00BF016C00CF017C00DF086
:10063000B0EC0DF008C0EDFF07C0EDFF06C0EDFF08
:1006400005C0EFFFFD0EDBCFE9FFFE0EDBCFEAFFBB
:10065000080EE926000EEA22EECF14F0EECF15F0D8
:10066000EECF16F0EFCF17F00A6A0B6A0C6A0D6A2C
:1006700014C005F015C006F016C007F017C008F04A
:1006800035EC0FF0010A1EE0080EDBCF18F0090E62
:10069000DBCF19F00A0EDBCF1AF00B0EDBCF1BF00D
:1006A0000A6A0B6A800E0C6E3F0E0D6E18C005F0C4
:1006B00019C006F01AC007F01BC008F045EC0FF097
:1006C000010A16E1FD0EDBCFE9FFFE0EDBCFEAFFEC
:1006D000100EE926000EEA22DFCFEEFF010EDBCF7F
:1006E000EEFF020EDBCFEEFF030EDBCFEEFFB0D04E
:1006F000D9CFE9FFDACFEAFFEECF18F0EECF19F04D
:10070000EECF1AF0EFCF1BF0FD0EDBCFE9FFFE0EB0
:10071000DBCFEAFF100EE926000EEA22EECF1CF036
:10072000EECF1DF0EECF1EF0EFCF1FF01CC00AF091
:100730001DC00BF01EC00CF01FC00DF018C005F05E
:1007400019C006F01AC007F01BC008F0AFEC0DF09E
:1007500005C014F006C015F007C016F008C017F069
:10076000FD0EDBCFE9FFFE0EDBCFEAFF080EE92628
:10077000000EEA22EECF24F0EECF25F0EECF26F0E9
:10078000EFCF27F014C10AF015C10BF016C10CF021
:1007900017C10DF024C005F025C006F026C007F0F3
:1007A00027C008F099EC0EF005C020F006C021F03B
:1007B00007C022F008C023F020C00AF021C00BF0CF
:1007C00022C00CF023C00DF014C005F015C006F0D7
:1007D00016C007F017C008F046EC0EF005C0DEFFAB
:1007E00006C0DEFF07C0DEFF08C0DDFFDD52DD52C0
:1007F000D9CFE9FFDACFEAFFEECF14F0EECF15F054
:10080000EECF16F0EFCF17F0FD0EDBCFE9FFFE0EB7
:10081000DBCFEAFF100EE926000EEA22EECF05F04C
:10082000EECF06F0EECF07F0EFCF08F014C00AF0DD
:1008300015C00BF016C00CF017C00DF0B0EC0DF0A9
:1008400008C0EDFF07C0EDFF06C0EDFF05C0EFFFDC
:10085000FD0EDBCFE9FFFE0EDBCFEAFF100EE9262F
:10086000000EEA22EECF14F0EECF15F0EECF16F028
:10087000EFCF17F014C004F015C005F016C006F055
:1008800017C007F00C0EE15C03E200D0E16AE5520C
:10089000E16EE552E7CFD9FF1200D9CFE6FFE1CFF5
:1008A000D9FF040EE126DE6ADE6ADE6ADD6ADD5209
:1008B000DD52FD0EDBCFE9FFFE0EDBCFEAFFEECF10
:1008C00014F0EECF15F0EECF16F0EFCF17F0FD0ECF
:1008D000DBCFE9FFFE0EDBCFEAFF040EE926000EB8
:1008E000EA22EECF18F0EECF19F0EECF1AF0EFCFEC
:1008F0001BF018C00AF019C00BF01AC00CF01BC096
:100900000DF014C005F015C006F016C007F017C0B2
:1009100008F099EC0EF005C0DEFF06C0DEFF07C050
:10092000DEFF08C0DDFFDD52DD52DECF04F0DECF9A
:1009300005F0DECF06F0DDCF07F0DD52DD52040E0C
:10094000E15C03E200D0E16AE552E16EE552E7CFF7
:10095000D9FF1200D9CFE6FFE1CFD9FF040EE1267F
:10096000DE6ADE6ADE6ADD6ADD52DD52FD0EDBCF55
:10097000E9FFFE0EDBCFEAFF040EE926000EEA22B5
:10098000EECF14F0EECF15F0EECF16F0EFCF17F05C
:100990000A6A0B6A0C6A0D6A14C005F015C006F0ED
:1009A00016C007F017C008F035EC0FF0010A07E198
:1009B000DE6ADE6ADE6ADD6ADD52DD5268D0FD0E77
:1009C000DBCFE9FFFE0EDBCFEAFFEECF18F0EECF74
:1009D00019F0EECF1AF0EFCF1BF0FD0EDBCFE9FFE1
:1009E000FE0EDBCFEAFF080EE926000EEA22EECF6C
:1009F0001CF0EECF1DF0EECF1EF0EFCF1FF01CC0AD
:100A00000AF01DC00BF01EC00CF01FC00DF018C086
:100A100005F019C006F01AC007F01BC008F0AFECD3
:100A20000DF005C014F006C015F007C016F008C0A0
:100A300017F0FD0EDBCFE9FFFE0EDBCFEAFF040E61
:100A4000E926000EEA22EECF20F0EECF21F0EECF25
:100A500022F0EFCF23F020C00AF021C00BF022C01B
:100A60000CF023C00DF014C005F015C006F016C040
:100A700007F017C008F099EC0EF005C0DEFF06C0C5
:100A8000DEFF07C0DEFF08C0DDFFDD52DD52FD0ED8
:100A9000DBCFE9FFFE0EDBCFEAFFEECF14F0EECFA7
:100AA00015F0EECF16F0EFCF17F0FD0EDBCFE9FF1C
:100AB000FE0EDBCFEAFF080EE926000EEA2214C084
:100AC000EEFF15C0EEFF16C0EEFF17C0EEFFDECF43
:100AD00004F0DECF05F0DECF06F0DDCF07F0DD520B
:100AE000DD52040EE15C03E200D0E16AE552E16E02
:100AF000E552E7CFD9FF1200D9CFE6FFE1CFD9FF0A
:100B0000040EE126DE6ADE6ADE6ADD6ADD52DD524F
:100B1000FD0EDBCFE9FFFE0EDBCFEAFFEECF14F0D8
:100B2000EECF15F0EECF16F0EFCF17F0FD0EDBCFC6
:100B3000E9FFFE0EDBCFEAFF100EE926000EEA22E7
:100B4000EECF18F0EECF19F0EECF1AF0EFCF1BF08A
:100B500018C00AF019C00BF01AC00CF01BC00DF041
:100B600014C005F015C006F016C007F017C008F055
:100B70003CEC0FF0010A21E1FD0EDBCFE9FFFE0E98
:100B8000DBCFEAFF100EE926000EEA22EECF14F0CA
:100B9000EECF15F0EECF16F0EFCF17F0FD0EDBCF56
:100BA000E9FFFE0EDBCFEAFF14C0EEFF15C0EEFF3B
:100BB00016C0EEFF17C0EEFF54D0FD0EDBCFE9FFED
:100BC000FE0EDBCFEAFFEECF14F0EECF15F0EECF46
:100BD00016F0EFCF17F0FD0EDBCFE9FFFE0EDBCFF7
:100BE000EAFF0C0EE926000EEA22EECF18F0EECF57
:100BF00019F0EECF1AF0EFCF1BF018C00AF019C0B1
:100C00000BF01AC00CF01BC00DF014C005F015C09D
:100C100006F016C007F017C008F045EC0FF0010A07
:100C200020E1FD0EDBCFE9FFFE0EDBCFEAFF0C0E6D
:100C3000E926000EEA22EECF14F0EECF15F0EECF4B
:100C400016F0EFCF17F0FD0EDBCFE9FFFE0EDBCF86
:100C5000EAFF14C0EEFF15C0EEFF16C0EEFF17C08E
:100C6000EEFFFD0EDBCFE9FFFE0EDBCFEAFFEECF9E
:100C700014F0EECF15F0EECF16F0EFCF17F0FD0E1B
:100C8000DBCFE9FFFE0EDBCFEAFF080EE926000E00
:100C9000EA22EECF05F0EECF06F0EECF07F0EFCF71
:100CA00008F014C00AF015C00BF016C00CF017C005
:100CB0000DF0B0EC0DF008C0EDFF07C0EDFF06C071
:100CC000EDFF05C0EFFFFD0EDBCFE9FFFE0EDBCF32
:100CD000EAFF080EE926000EEA22EECF14F0EECF6E
:100CE00015F0EECF16F0EFCF17F0FD0EDBCFE9FFDA
:100CF000FE0EDBCFEAFF100EE926000EEA22EECF51
:100D000018F0EECF19F0EECF1AF0EFCF1BF018C0AD
:100D10000AF019C00BF01AC00CF01BC00DF014C083
:100D200005F015C006F016C007F017C008F03CEC3F
:100D30000FF0010A25E1FD0EDBCFE9FFFE0EDBCF50
:100D4000EAFF100EE926000EEA22EECF14F0EECFF5
:100D500015F0EECF16F0EFCF17F0FD0EDBCFE9FF69
:100D6000FE0EDBCFEAFF100EE926000EEA2214C0C9
:100D7000EEFF15C0EEFF16C0EEFF17C0EEFF5CD011
:100D8000FD0EDBCFE9FFFE0EDBCFEAFF080EE92602
:100D9000000EEA22EECF14F0EECF15F0EECF16F0F3
:100DA000EFCF17F0FD0EDBCFE9FFFE0EDBCFEAFF42
:100DB0000C0EE926000EEA22EECF18F0EECF19F065
:100DC000EECF1AF0EFCF1BF018C00AF019C00BF0ED
:100DD0001AC00CF01BC00DF014C005F015C006F0D1
:100DE00016C007F017C008F045EC0FF0010A24E127
:100DF000FD0EDBCFE9FFFE0EDBCFEAFF0C0EE9268E
:100E0000000EEA22EECF14F0EECF15F0EECF16F082
:100E1000EFCF17F0FD0EDBCFE9FFFE0EDBCFEAFFD1
:100E20000C0EE926000EEA2214C0EEFF15C0EEFFFC
:100E300016C0EEFF17C0EEFFFD0EDBCFE9FFFE0E82
:100E4000DBCFEAFF040EE926000EEA22EECF14F013
:100E5000EECF15F0EECF16F0EFCF17F00A6A0B6A5F
:100E60000C6A0D6A14C005F015C006F016C007F034
:100E700017C008F035EC0FF0010A07E1DE6ADE6A00
:100E8000DE6ADD6ADD52DD5240D0FD0EDBCFE9FFC8
:100E9000FE0EDBCFEAFF080EE926000EEA22EECFB7
:100EA00014F0EECF15F0EECF16F0EFCF17F0FD0EE9
:100EB000DBCFE9FFFE0EDBCFEAFF040EE926000ED2
:100EC000EA22EECF18F0EECF19F0EECF1AF0EFCF06
:100ED0001BF018C00AF019C00BF01AC00CF01BC0B0
:100EE0000DF014C005F015C006F016C007F017C0CD
:100EF00008F099EC0EF005C0DEFF06C0DEFF07C06B
:100F0000DEFF08C0DDFFDD52DD52DECF04F0DECFB4
:100F100005F0DECF06F0DDCF07F0DD52DD52040E26
:100F2000E15C03E200D0E16AE552E16EE552E7CF11
:100F3000D9FF1200D9CFE6FFE1CFD9FFFD0EDBCFFD
:100F4000E6FFFE0EDBCFE6FFD7DDE552E55204C03B
:100F500014F005C015F006C016F007C017F0FB0E20
:100F6000DBCFE9FFFC0EDBCFEAFF14C0EEFF15C0BC
:100F7000EEFF16C0EEFF17C0EEFFFB0EDBCFE6FF65
:100F8000FC0EDBCFE6FF20EC00F0E552E55200D08E
:100F9000E552E7CFD9FF1200D9CFE6FFE1CFD9FF65
:100FA000FD0EDBCFE6FFFE0EDBCFE6FFD3DCE55226
:100FB000E55204C014F005C015F006C016F007C0D5
:100FC00017F0FB0EDBCFE9FFFC0EDBCFEAFF14C00E
:100FD000EEFF15C0EEFF16C0EEFF17C0EEFFFB0ED2
:100FE000DBCFE6FFFC0EDBCFE6FF20EC00F0E552A6
:100FF000E55200D0E552E7CFD9FF1200D9CFE6FF86
:10100000E1CFD9FFFD0EDBCFE6FFFE0EDBCFE6FF23
:1010100073DDE552E55204C014F005C015F006C0BA
:1010200016F007C017F0FB0EDBCFE9FFFC0EDBCF9D
:10103000EAFF14C0EEFF15C0EEFF16C0EEFF17C0AA
:10104000EEFFFB0EDBCFE6FFFC0EDBCFE6FFA2ECF4
:1010500001F0E552E55200D0E552E7CFD9FF12008A
:10106000D9CFE6FFE1CFD9FFFD0EDBCFE6FFFE0EC5
:10107000DBCFE6FF6FDCE552E55204C014F005C09B
:1010800015F006C016F007C017F0FB0EDBCFE9FF26
:10109000FC0EDBCFEAFF14C0EEFF15C0EEFF16C05A
:1010A000EEFF17C0EEFFFB0EDBCFE6FFFC0EDBCF43
:1010B000E6FFA2EC01F0E552E55200D0E552E7CFA1
:1010C000D9FF1200D9CFE6FFE1CFD9FFFD0EDBCF6C
:1010D000E6FFFE0EDBCFE6FF4DEC04F0E552E552F5
:1010E00004C014F005C015F006C016F007C017F0D4
:1010F000FB0EDBCFE9FFFC0EDBCFEAFF14C0EEFFF7
:1011000015C0EEFF16C0EEFF17C0EEFFFB0EDBCFE3
:10111000E6FFFC0EDBCFE6FF20EC00F0E552E552E7
:1011200000D0E552E7CFD9FF1200D9CFE6FFE1CFDB
:10113000D9FFFD0EDBCFE6FFFE0EDBCFE6FF4DEC69
:1011400004F0E552E55204C014F005C015F006C0E5
:1011500016F007C017F0FB0EDBCFE9FFFC0EDBCF6C
:10116000EAFF14C0EEFF15C0EEFF16C0EEFF17C079
:10117000EEFFFB0EDBCFE6FFFC0EDBCFE6FFA2ECC3
:1011800001F0E552E55200D0E552E7CFD9FF120059
:10119000D9CFE6FFE1CFD9FF080EE126FD0EDBCF68
:1011A000E6FFFE0EDBCFE6FF4DEC04F0E552E55224
:1011B00004C0DEFF05C0DEFF06C0DEFF07C0DDFFA6
:1011C000DD52DD52FB0EDBCFE6FFFC0EDBCFE6FF90
:1011D00093DCE552E552040E04C0DBFF050E05C0AA
:1011E000DBFF060E06C0DBFF070E07C0DBFFD9CF13
:1011F000E9FFDACFEAFFEECF18F0EECF19F0EECF2D
:101200001AF0EFCF1BF0040EDBCF1CF0050EDBCF86
:101210001DF0060EDBCF1EF0070EDBCF1FF01CC04B
:101220000AF01DC00BF01EC00CF01FC00DF018C05E
:1012300005F019C006F01AC007F01BC008F0B0ECAA
:101240000DF005C014F006C015F007C016F008C078
:1012500017F014C004F015C005F016C006F017C052
:1012600007F0080EE15C03E200D0E16AE552E16EAE
:10127000E552E7CFD9FF1200D9CFE6FFE1CFD9FF82
:10128000080EE126FD0EDBCFE6FFFE0EDBCFE6FF0C
:101290004DEC04F0E552E55204C0DEFF05C0DEFF70
:1012A00006C0DEFF07C0DDFFDD52DD52FB0EDBCFE7
:1012B000E6FFFC0EDBCFE6FF1FDCE552E552040E35
:1012C00004C0DBFF050E05C0DBFF060E06C0DBFF1A
:1012D000070E07C0DBFFF90EDBCFE9FFFA0EDBCF0D
:1012E000EAFF040EDBCFEEFF050EDBCFEEFF060EAE
:1012F000DBCFEEFF070EDBCFEEFFF90EDBCFE6FF15
:10130000FA0EDBCFE6FF20EC00F0E552E55204C018
:1013100018F005C019F006C01AF007C01BF0D9CFAD
:10132000E9FFDACFEAFFEECF1CF0EECF1DF0EECFF3
:101330001EF0EFCF1FF01CC00AF01DC00BF01EC046
:101340000CF01FC00DF018C005F019C006F01AC04F
:1013500007F01BC008F0B0EC0DF005C014F006C09B
:1013600015F007C016F008C017F014C004F015C03F
:1013700005F016C006F017C007F0080EE15C03E2A6
:1013800000D0E16AE552E16EE552E7CFD9FF1200E5
:10139000D9CFE6FFE1CFD9FF080EE126FD0EDBCF66
:1013A000E6FFFE0EDBCFE6FF4DEC04F0E552E55222
:1013B00004C0DEFF05C0DEFF06C0DEFF07C0DDFFA4
:1013C000DD52DD52FB0EDBCFE6FFFC0EDBCFE6FF8E
:1013D0007CEC05F0E552E552040E04C0DBFF050E7F
:1013E00005C0DBFF060E06C0DBFF070E07C0DBFFF4
:1013F000F90EDBCFE9FFFA0EDBCFEAFF040EDBCFFD
:10140000EEFF050EDBCFEEFF060EDBCFEEFF070E85
:10141000DBCFEEFFF90EDBCFE6FFFA0EDBCFE6FF08
:10142000A2EC01F0E552E55204C018F005C019F035
:1014300006C01AF007C01BF0D9CFE9FFDACFEAFFE8
:10144000EECF1CF0EECF1DF0EECF1EF0EFCF1FF071
:101450001CC00AF01DC00BF01EC00CF01FC00DF028
:1014600018C005F019C006F01AC007F01BC008F03C
:10147000B0EC0DF005C014F006C015F007C016F072
:1014800008C017F014C004F015C005F016C006F02F
:1014900017C007F0080EE15C03E200D0E16AE552F4
:1014A000E16EE552E7CFD9FF1200D9CFE6FFE1CFD9
:1014B000D9FF080EE126FD0EDBCFE6FFFE0EDBCFE7
:1014C000E6FF4DEC04F0E552E55204C0DEFF05C036
:1014D000DEFF06C0DEFF07C0DDFFDD52DD52FB0E82
:1014E000DBCFE6FFFC0EDBCFE6FFAAEC04F0E55213
:1014F000E552040E04C0DBFF050E05C0DBFF060E3F
:1015000006C0DBFF070E07C0DBFFD9CFE9FFDACF4C
:10151000EAFFEECF18F0EECF19F0EECF1AF0EFCFD2
:101520001BF0040EDBCF1CF0050EDBCF1DF0060E0A
:10153000DBCF1EF0070EDBCF1FF01CC00AF01DC072
:101540000BF01EC00CF01FC00DF018C005F019C044
:1015500006F01AC007F01BC008F0B0EC0DF005C093
:1015600014F006C015F007C016F008C017F014C03C
:1015700004F015C005F016C006F017C007F0080EFD
:10158000E15C03E200D0E16AE552E16EE552E7CFAB
:10159000D9FF1200D9CFE6FFE1CFD9FF080EE1262F
:1015A000FD0EDBCFE6FFFE0EDBCFE6FF4DEC04F0D9
:1015B000E552E55204C0DEFF05C0DEFF06C0DEFFD7
:1015C00007C0DDFFDD52DD52FB0EDBCFE6FFFC0E78
:1015D000DBCFE6FFAAEC04F0E552E552040E04C0AE
:1015E000DBFF050E05C0DBFF060E06C0DBFF070EA6
:1015F00007C0DBFFF90EDBCFE9FFFA0EDBCFEAFF16
:10160000040EDBCFEEFF050EDBCFEEFF060EDBCFC9
:10161000EEFF070EDBCFEEFFF90EDBCFE6FFFA0E93
:10162000DBCFE6FF20EC00F0E552E55204C018F0F5
:1016300005C019F006C01AF007C01BF0D9CFE9FFAA
:10164000DACFEAFFEECF1CF0EECF1DF0EECF1EF0AA
:10165000EFCF1FF01CC00AF01DC00BF01EC00CF035
:101660001FC00DF018C005F019C006F01AC007F031
:101670001BC008F0B0EC0DF005C014F006C015F06A
:1016800007C016F008C017F014C004F015C005F02C
:1016900016C006F017C007F0080EE15C03E200D0A8
:1016A000E16AE552E16EE552E7CFD9FF1200D9CFEA
:1016B000E6FFE1CFD9FF080EE126FD0EDBCFE6FF06
:1016C000FE0EDBCFE6FF4DEC04F0E552E55204C020
:1016D000DEFF05C0DEFF06C0DEFF07C0DDFFDD5216
:1016E000DD52FB0EDBCFE6FFFC0EDBCFE6FFAAEC04
:1016F00004F0E552E552040E04C0DBFF050E05C000
:10170000DBFF060E06C0DBFF070E07C0DBFFF90E8E
:10171000DBCFE9FFFA0EDBCFEAFF040EDBCFEEFFF3
:10172000050EDBCFEEFF060EDBCFEEFF070EDBCFA5
:10173000EEFFF90EDBCFE6FFFA0EDBCFE6FFA2EC01
:1017400001F0E552E55204C018F005C019F006C0DA
:101750001AF007C01BF0D9CFE9FFDACFEAFFEECFCE
:101760001CF0EECF1DF0EECF1EF0EFCF1FF01CC02F
:101770000AF01DC00BF01EC00CF01FC00DF018C009
:1017800005F019C006F01AC007F01BC008F0B0EC55
:101790000DF005C014F006C015F007C016F008C023
:1017A00017F014C004F015C005F016C006F017C0FD
:1017B00007F0080EE15C03E200D0E16AE552E16E59
:1017C000E552E7CFD9FF1200D9CFE6FFE1CFD9FF2D
:1017D0000C0EE126FD0EDBCFE6FFFE0EDBCFE6FFB3
:1017E0004DEC04F0E552E55204C0DEFF05C0DEFF1B
:1017F00006C0DEFF07C0DDFFDD52DD52FB0EDBCF92
:10180000E6FFFC0EDBCFE6FF7CEC05F0E552E5528F
:10181000040E04C0DBFF050E05C0DBFF060E06C08C
:10182000DBFF070E07C0DBFFF90EDBCFE6FFFA0E8A
:10183000DBCFE6FFAAEC04F0E552E552080E04C047
:10184000DBFF090E05C0DBFF0A0E06C0DBFF0B0E37
:1018500007C0DBFFD9CFE9FFDACFEAFFEECF1CF0FC
:10186000EECF1DF0EECF1EF0EFCF1FF0040EDBCF5A
:1018700020F0050EDBCF21F0060EDBCF22F0070EA5
:10188000DBCF23F020C00AF021C00BF022C00CF007
:1018900023C00DF01CC005F01DC006F01EC007F0EF
:1018A0001FC008F0B0EC0DF005C018F006C019F02C
:1018B00007C01AF008C01BF0080EDBCF24F0090E99
:1018C000DBCF25F00A0EDBCF26F00B0EDBCF27F0A7
:1018D00024C00AF025C00BF026C00CF027C00DF084
:1018E00018C005F019C006F01AC007F01BC008F0B8
:1018F000B0EC0DF005C014F006C015F007C016F0EE
:1019000008C017F014C004F015C005F016C006F0AA
:1019100017C007F00C0EE15C03E200D0E16AE5526B
:10192000E16EE552E7CFD9FF1200D9CFE6FFE1CF54
:10193000D9FF0C0EE126FD0EDBCFE6FFFE0EDBCF5E
:10194000E6FF4DEC04F0E552E55204C0DEFF05C0B1
:10195000DEFF06C0DEFF07C0DDFFDD52DD52FB0EFD
:10196000DBCFE6FFFC0EDBCFE6FF7CEC05F0E552BB
:10197000E552040E04C0DBFF050E05C0DBFF060EBA
:1019800006C0DBFF070E07C0DBFFF70EDBCFE6FF6D
:10199000F80EDBCFE6FFAAEC04F0E552E552080EA4
:1019A00004C0DBFF090E05C0DBFF0A0E06C0DBFF2B
:1019B0000B0E07C0DBFFF90EDBCFE9FFFA0EDBCF22
:1019C000EAFF040EDBCFEEFF050EDBCFEEFF060EC7
:1019D000DBCFEEFF070EDBCFEEFFF50EDBCFE9FF2F
:1019E000F60EDBCFEAFF080EDBCFEEFF090EDBCFF2
:1019F000EEFF0A0EDBCFEEFF0B0EDBCFEEFFD9CFF3
:101A0000E9FFDACFEAFFEECF1CF0EECF1DF0EECF0C
:101A10001EF0EFCF1FF01CC0E6FF1DC0E6FF1EC08A
:101A2000E6FF1FC0E6FFF50EDBCFE6FFF60EDBCFCD
:101A3000E6FF20EC00F0E552E552E552E7CF1FF05B
:101A4000E552E7CF1EF0E552E7CF1DF0E552E7CFB4
:101A50001CF004C020F005C021F006C022F007C031
:101A600023F020C00AF021C00BF022C00CF023C0EC
:101A70000DF01CC005F01DC006F01EC007F01FC011
:101A800008F0B0EC0DF005C018F006C019F007C062
:101A90001AF008C01BF018C0E6FF19C0E6FF1AC014
:101AA000E6FF1BC0E6FFF90EDBCFE6FFFA0EDBCF49
:101AB000E6FF20EC00F0E552E552E552E7CF1BF0DF
:101AC000E552E7CF1AF0E552E7CF19F0E552E7CF3C
:101AD00018F004C024F005C025F006C026F007C0A9
:101AE00027F024C00AF025C00BF026C00CF027C058
:101AF0000DF018C005F019C006F01AC007F01BC0A1
:101B000008F0B0EC0DF005C014F006C015F007C0E9
:101B100016F008C017F014C004F015C005F016C088
:101B200006F017C007F00C0EE15C03E200D0E16A9A
:0C1B3000E552E16EE552E7CFD9FF12004C
:041B3C000F9E05D023
:101B40000F9E07AE02D0076C0F8E07C001F0006A2F
:101B5000136A126A860E026E036ABFEF0FF00D7EE3
:101B60000F6AFBEC0FF013EC10F00FB6A3EF0FF0C1
:101B70000FA20AD00FAA03D00FBEA3EF0FF00FA43D
:101B8000AFEF0FF0ACEF0FF00FAA05D00FACAFEF37
:101B90000FF0ACEF0FF00FA00AD00FA808D00FBEC7
:101BA00004D00FA402D0B8EF0FF0BCEF0FF0126A10
:101BB000036A0D50085C116E10E305C013F006C0F7
:101BC00000F007C001F008C010F00AC005F00BC01B
:101BD00006F00CC007F00F3A09D00AC013F00BC092
:101BE00000F00CC001F00DC010F0116C0F9E0FBC86
:101BF0000F8E10C002F00FB0EBEF0FF01A0E116055
:101C0000EBEF0FF0026A086A0FA408D0056C061EFD
:101C1000071E081EE86A0622072208220FAC08D019
:101C2000136C001E011E021EE86A0022012202221D
:101C3000046A115207E008340732063205320432D2
:101C4000112EF9D705501326065000220750012205
:101C50000850022204C012F00F9E02AE0BD0126C8C
:101C6000131E001E011E021EE86A1322002201221A
:101C700002220F8E02A006D0D88001320032133229
:101C80001232102A10C002F0BFEF0FF00F6AFBEC07
:101C90000FF013EC10F00FB6A3EF0FF00FA205D06A
:101CA0000FBAA3EF0FF0AAEF0FF00FBAB6EF0FF0D5
:101CB0000FA005D00FB8A3EF0FF0B6EF0FF00FB8DD
:101CC000AAEF0FF0036A7F0E0824026EE86A03226F
:101CD0000D50025EE86A035A1A0E106E086A126A04
:101CE000136A006A016A0A50055E0B50065A0C50CE
:101CF000075A000E085A09E70A5005260B5006221B
:101D00000C500722000E082201D0128AD890053606
:101D1000063607360836D8901236133600360136A6
:101D2000102EE1D7075006100510D8A4128ABFEF75
:101D30000FF00F6AFBEC0FF013EC10F00FB6A3EFEF
:101D40000FF00FA205D00FB8A3EF0FF0AAEF0FF01E
:101D50000FAA05D00FB0A3EF0FF0AAEF0FF00FB04E
:101D600002D00FA802D0B6EF0FF0036A0D5008247E
:101D7000026EE86A03227E0E025EE86A035A126A65
:101D8000136A006A016A0C500702F4CF01F0F3CF26
:101D900000F00B500702F3501326F4500022000EFF
:101DA00001220C500602F3501326F4500022000EBC
:101DB00001220A500702F3501226F4501322000E9B
:101DC000002201220B500602F3501226F450132277
:101DD000000E002201220C500502F3501226F4508E
:101DE0001322000E002201220A500602F45012268D
:101DF000000E1322002201220B500502F45012267D
:101E0000000E132200220122BFEF0FF00F6AFBEC3D
:101E10000FF00FB610EF0FF00FA20ED00FB405D0D9
:101E20007F0E076EFF0E066E1FD0800E076E066ACD
:101E30001BD0076A066A18D00FB0FBD78F0E086058
:101E4000EDD77E0E0864F5D78E0E085C05E0D890BD
:101E500007320632082AF8D70FA406D0066C071EF0
:101E6000E86A072207AEE5D712004EEC0FF00FB676
:101E7000000C0FB0010C000C4EEC0FF00FB6000C74
:101E80000FB0000C0FB4000C010C4EEC0FF00FB6AD
:101E9000000C0FB0000C0FA4000C010C0F6AFBEC3F
:101EA0000FF013EC10F00FB612000FAE08D00FA019
:101EB00004D00FA802D00F8012000F9012000D5016
:101EC000085C0BE10C50075C08E10B50065C05E177
:101ED0000A50055C02E10F801200D8A002D00F8EDC
:101EE00010D008500DC008F00D6E07500CC007F060
:101EF0000C6E06500BC006F00B6E05500AC005F0C4
:101F00000A6E0D50085C10E0FF0F09E00F900FB44F
:101F100003D00FAE0F8412000FAE0F9412000D2AE3
:101F2000D8900C320B320A320A50055E0B50065A1A
:101F30000C50075A07BEEAD7D89005360636073642
:101F4000082EF8D7C8D77F0E086EFF0E076E066EF4
:101F5000056E12007F0E0FBEFF0E086E02D07F0EC0
:101F6000086E800E076E066A056AF3D70FAE04D0BE
:101F7000800E086E076AF7D7086A076AF4D701501F
:101F8000001013101210F8E003BEF0D701BE0CD001
:101F900002500310EBE0D8901236133600360136AB
:101FA0000206D8A00306F2D70350D4E10228D2E0FB
:101FB00012AE11D07F0E121402E113A00CD0132A1E
:101FC000E86A0022012207E3D8800132003213328E
:101FD000022A0228BFE00250C9E013C005F000C089
:101FE00006F00134076E0230086E0732089E0FBEFD
:101FF000088EA9EF0FF00736083602E30F840F7E34
:1020000006E10F80086A076A066A056A1200082856
:1020100003E0D88007321200D890073202E10F8225
:1020200012000F8612000C360D3602E30F8C0F7E65
:1020300006E10F880D6A0C6A0B6A0A6A12000D2805
:1020400003E0D8800C321200D8900C32EAE10F8AFB
:0220500012007C
:0E205200D9CFE6FFE1CFD9FF0C0EE126DE6A02
:10206000DE6ADE6ADD6ADD52DD52040EDB6A050ED1
:10207000DB6A060EDB6A070EDB6A080EDB6A090EF6
:10208000DB6A0A0EDB6A0B0EDB6AFD0EDBCFE9FFB3
:10209000FE0EDBCFEAFF100EE926000EEA22EECF9D
:1020A00014F0EECF15F0EECF16F0EFCF17F0FD0ED7
:1020B000DBCFE9FFFE0EDBCFEAFFEECF18F0EECF6D
:1020C00019F0EECF1AF0EFCF1BF018C00AF019C0CC
:1020D0000BF01AC00CF01BC00DF014C005F015C0B9
:1020E00006F016C007F017C008F03CEC0FF0010A2C
:1020F00016E0FD0EDBCFE9FFFE0EDBCFEAFF080E98
:10210000E926000EEA22EECFDFFF010EEECFDBFF65
:10211000020EEECFDBFF030EEECFDBFF62D1FD0E32
:10212000DBCFE9FFFE0EDBCFEAFF100EE926000E43
:10213000EA22EECF14F0EECF15F0EECF16F0EFCF8F
:1021400017F0FD0EDBCFE9FFFE0EDBCFEAFF040E3A
:10215000E926000EEA22EECF18F0EECF19F0EECF0E
:102160001AF0EFCF1BF018C00AF019C00BF01AC01C
:102170000CF01BC00DF014C005F015C006F016C021
:1021800007F017C008F045EC0FF0010A16E0FD0E4D
:10219000DBCFE9FFFE0EDBCFEAFF0C0EE926000ED7
:1021A000EA22EECFDFFF010EEECFDBFF020EEECF15
:1021B000DBFF030EEECFDBFF14D1FD0EDBCFE9FF1B
:1021C000FE0EDBCFEAFF040EE926000EEA22EECF78
:1021D00014F0EECF15F0EECF16F0EFCF17F0FD0EA6
:1021E000DBCFE9FFFE0EDBCFEAFFEECF18F0EECF3C
:1021F00019F0EECF1AF0EFCF1BF018C00AF019C09B
:102200000BF01AC00CF01BC00DF014C005F015C087
:1022100006F016C007F017C008F0AFEC0DF0040E82
:1022200005C0DBFF050E06C0DBFF060E07C0DBFFA7
:10223000070E08C0DBFFFD0EDBCFE9FFFE0EDBCF94
:10224000EAFF0C0EE926000EEA22EECF14F0EECFE4
:1022500015F0EECF16F0EFCF17F0FD0EDBCFE9FF54
:10226000FE0EDBCFEAFF080EE926000EEA22EECFD3
:1022700018F0EECF19F0EECF1AF0EFCF1BF018C028
:102280000AF019C00BF01AC00CF01BC00DF014C0FE
:1022900005F015C006F016C007F017C008F0AFEC47
:1022A0000DF0080E05C0DBFF090E06C0DBFF0A0EAD
:1022B00007C0DBFF0B0E08C0DBFFFD0EDBCFE9FF25
:1022C000FE0EDBCFEAFF100EE926000EEA22EECF6B
:1022D0001CF0EECF1DF0EECF1EF0EFCF1FF0FD0E85
:1022E000DBCFE9FFFE0EDBCFEAFFEECF20F0EECF33
:1022F00021F0EECF22F0EFCF23F020C00AF021C072
:102300000BF022C00CF023C00DF01CC005F01DC066
:1023100006F01EC007F01FC008F0AFEC0DF0040E71
:10232000DBCF0AF0050EDBCF0BF0060EDBCF0CF097
:10233000070EDBCF0DF046EC0EF005C018F006C01E
:1023400019F007C01AF008C01BF018C005F019C03A
:1023500006F01AC007F01BC008F0080EDBCF0AF029
:10236000090EDBCF0BF00A0EDBCF0CF00B0EDBCF30
:102370000DF099EC0EF005C014F006C015F007C082
:1023800016F008C017F0FD0EDBCFE9FFFE0EDBCF25
:10239000EAFF080EE926000EEA22EECF24F0EECF87
:1023A00025F0EECF26F0EFCF27F024C00AF025C0AD
:1023B0000BF026C00CF027C00DF014C005F015C0BE
:1023C00006F016C007F017C008F0B0EC0DF005C01D
:1023D000DEFF06C0DEFF07C0DEFF08C0DDFFDD5206
:1023E000DD52DECF04F0DECF05F0DECF06F0DDCF2C
:1023F00007F0DD52DD520C0EE15C03E200D0E16A31
:0C240000E552E16EE552E7CFD9FF120073
:04240C000C0EBD6E87
:10241000BA6EBE6ABD98BD9ABB6ABA98BA9ACB68C2
:1024200094929494CA6ACA849E929D929F9292803A
:102430009282010EC26E0D0EC16E960EC06EC282E9
:102440009F9C9E9C9D8C840ED56E6C0ED76ED66A1A
:10245000F294F28AF28CF28EE66AE66A800EE66EFA
:102460003F0EE66EE66AE66AA00EE66E400EE66E87
:10247000E66AE66AE66AE66AE66AE66AE66AE66ADC
:10248000E66AE66A800EE66E3F0EE66EBAEC14F07F
:10249000146E140EE15E1450E66AE66AC80EE66E2B
:1024A000420EE66E1EEC15F0E552E552E552E5529D
:1024B000FFD71200DACFE4FFE2CFDAFFE9CFE4FF83
:1024C000EACFE4FFF6CFE4FFF7CFE4FFF5CFE4FF78
:1024D000F3CFE4FFF4CFE4FFFACFE4FF00EE00F027
:1024E000140EE80403E3EECFE4FFFBD700EE14F094
:1024F000140EE80403E3EECFE4FFFBD7E652D9CF96
:10250000E6FFE1CFD9FF040EE126DE6ADE6ADE6A6D
:10251000DD6ADD52DD529E50400B40E09D50400B85
:102520003DE0C450000EF350C324286E28C007F0CD
:102530009EEC0DF005C0DEFF06C0DEFF07C0DEFF2B
:1025400008C0DDFFDD52DD523C0EC21410E1C30EA7
:10255000C2140409C26EDFCF00F1010EDBCF01F11E
:10256000020EDBCF02F1030EDBCF03F116D03C0EDF
:10257000C21404080FE1C30EC214C26EDFCF04F10F
:10258000010EDBCF05F1020EDBCF06F1030EDBCF30
:1025900007F103D0C30EC214C26EC282F250040B04
:1025A00001E1B2D0F250200B01E1AED0F2946C0EFA
:1025B000D76ED66A0C0EE66E010EE66E080EE66E5B
:1025C000010EE66E04C1E6FF05C1E6FF06C1E6FFA7
:1025D00007C1E6FF00C1E6FF01C1E6FF02C1E6FF59
:1025E00003C1E6FF54EC15F0286E0C0EE15E285096
:1025F00008C105F009C106F00AC107F00BC108F0D7
:1026000006EC0FF006C028F007C029F0D890293258
:102610002832D890293228322850BE6E08C105F0E1
:1026200009C106F00AC107F00BC108F006EC0FF073
:1026300006C028F007C029F029C028F0296A010E39
:102640002814E8B0BD88E8A0BD9808C105F009C10C
:1026500006F00AC107F00BC108F006EC0FF006C047
:1026600028F007C029F029C028F0296AD89028321C
:10267000010E2814E8B0BD8AE8A0BD9A0CC105F08F
:102680000DC106F00EC107F00FC108F006EC0FF007
:1026900006C028F007C029F0D89029322832D890F7
:1026A000293228322850BB6E0CC105F00DC106F04E
:1026B0000EC107F00FC108F006EC0FF006C028F0BD
:1026C00007C029F029C028F0296A010E2814E8B0B3
:1026D000BA88E8A0BA980CC105F00DC106F00EC189
:1026E00007F00FC108F006EC0FF006C028F007C095
:1026F00029F029C028F0296AD8902832010E281420
:10270000E8B0BA8AE8A0BA9A040EE15C02E2E16A93
:10271000E552E16EE552E7CFD9FFE55200EE27F032
:10272000140EE80403E3E5CFEDFFFBD700EE13F052
:10273000140EE80403E3E5CFEDFFFBD7E5CFFAFF86
:10274000E5CFF4FFE5CFF3FFE5CFF5FFE5CFF7FFEA
:10275000E5CFF6FFE5CFEAFFE5CFE9FFE5CFDAFF0A
:02276000110066
:0E276200D9CFE6FFE1CFD9FFFB0EDBCFECF0C5
:10277000FC0EDBCFEDF0FD0EDBCFEEF0FE0EDBCF7F
:10278000EFF0FB0EDBCFE0F0FC0EDBCFE1F0FD0E57
:10279000DBCFE2F0FE0EDBCFE3F0FB0EDBCFCCF0C5
:1027A000FC0EDBCFCDF0FD0EDBCFCEF0FE0EDBCF8F
:1027B000CFF0FB0EDBCFB4F0FC0EDBCFB5F0FD0E9F
:1027C000DBCFB6F0FE0EDBCFB7F0FB0EDBCFC0F0F9
:1027D000FC0EDBCFC1F0FD0EDBCFC2F0FE0EDBCF77
:1027E000C3F0C00EE66E000EE66EE00EE66E000E62
:1027F000E66EB40EE66E000EE66ECC0EE66E000ED1
:10280000E66EEC0EE66E000EE66E95EC0CF0146EC5
:102810000A0EE15E145004C0B0F005C0B1F006C06D
:10282000B2F007C0B3F0B0C004F0B1C005F0B2C060
:1028300006F0B3C007F000D0E552E7CFD9FF120091
:10284000D9CFE6FFE1CFD9FFFB0EDBCFF0F0FC0ED6
:10285000DBCFF1F0FD0EDBCFF2F0FE0EDBCFF3F0BD
:10286000F70EDBCF05F0F80EDBCF06F0F90EDBCF6D
:1028700007F0FA0EDBCF08F00A6A0B6A0C6A0D6AE1
:1028800035EC0FF0010A08E00001E46BE56B800E07
:10289000E66F3F0EE76F05D00001E46BE56BE66B7A
:1028A000E76BF30EDBCF05F0F40EDBCF06F0F50E91
:1028B000DBCF07F0F60EDBCF08F00A6A0B6A0C6A72
:1028C0000D6A35EC0FF0010A08E00001D06BD16B06
:1028D000800ED26F3F0ED36F05D00001D06BD16B4D
:1028E000D26BD36BF70EDBCF05F0F80EDBCF06F023
:1028F000F90EDBCF07F0FA0EDBCF08F0FB0EDBCFD3
:102900000AF0FC0EDBCF0BF0FD0EDBCF0CF0FE0E61
:10291000DBCF0DF099EC0EF005C0C4F006C0C5F099
:1029200007C0C6F008C0C7F0FB0EDBCF05F0FC0EF9
:10293000DBCF06F0FD0EDBCF07F0FE0EDBCF08F09D
:10294000F30EDBCF0AF0F40EDBCF0BF0F50EDBCF8E
:102950000CF0F60EDBCF0DF046EC0EF005C0B8F033
:1029600006C0B9F007C0BAF008C0BBF0E552E7CF27
:10297000D9FF1200D9CFE6FFE1CFD9FFFB0EDBCFA5
:10298000F0F0FC0EDBCFF1F0FD0EDBCFF2F0FE0E2F
:10299000DBCFF3F0F70EDBCFE4F0F80EDBCFE5F0A2
:1029A000F90EDBCFE6F0FA0EDBCFE7F0EF0EDBCF70
:1029B000D0F0F00EDBCFD1F0F10EDBCFD2F0F20E83
:1029C000DBCFD3F0F30EDBCFC4F0F40EDBCFC5F0DA
:1029D000F50EDBCFC6F0F60EDBCFC7F0EB0EDBCF8C
:1029E000B8F0EC0EDBCFB9F0ED0EDBCFBAF0EE0EA7
:1029F000DBCFBBF0E552E7CFD9FF1200D9CFE6FF1E
:102A0000E1CFD9FFF70EDBCFDCF0F80EDBCFDDF046
:102A1000F90EDBCFDEF0FA0EDBCFDFF0FB0EDBCF03
:102A2000D8F0FC0EDBCFD9F0FD0EDBCFDAF0FE0ED6
:102A3000DBCFDBF0E552E7CFD9FF1200D9CFE6FFBD
:102A4000E1CFD9FFFB0EDBCF10F1FC0EDBCF11F194
:102A5000FD0EDBCF12F1FE0EDBCF13F1330E146E41
:102A6000730E156ED80E166E430E176E10C10AF057
:102A700011C10BF012C10CF013C10DF014C005F020
:102A800015C006F016C007F017C008F046EC0EF0AF
:102A900005C014F106C015F107C016F108C017F102
:082AA000E552E7CFD9FF120057
:082AA800D9CFE6FFE1CFD9FF11
:102AB000040EE126DE6ADE6ADE6ADD6ADD52DD5280
:102AC000FB0EDBCF70F0FC0EDBCF71F0FD0EDBCF29
:102AD00072F0FE0EDBCF73F0F70EDBCF84F0F80E52
:102AE000DBCF85F0F90EDBCF86F0FA0EDBCF87F077
:102AF000600EE66E000EE66E29EC10F0E552E5522F
:102B000004C014F005C015F006C016F007C017F099
:102B100014C0E6FF15C0E6FF16C0E6FF17C0E6FFCB
:102B2000740EE66E000EE66E29EC10F0E552E552EA
:102B3000E552E7CF17F0E552E7CF16F0E552E7CFC1
:102B400015F0E552E7CF14F004C018F005C019F0F5
:102B500006C01AF007C01BF018C00AF019C00BF02D
:102B60001AC00CF01BC00DF014C005F015C006F023
:102B700016C007F017C008F0AFEC0DF005C0DEFF7F
:102B800006C0DEFF07C0DEFF08C0DDFFDD52DD52FC
:102B9000D9CFE9FFDACFEAFFEECFE6FFEECFE6FFCF
:102BA000EECFE6FFEFCFE6FFB1EC13F0E552E552D2
:102BB000E552E55204C0DEFF05C0DEFF06C0DEFFC1
:102BC00007C0DDFFDD52DD52DFCF98F0010EDBCF15
:102BD00099F0020EDBCF9AF0030EDBCF9BF0DFCF34
:102BE000ACF0010EDBCFADF0020EDBCFAEF0030E8A
:102BF000DBCFAFF0D950F50FE96EFF0EDA20EA6EA9
:102C0000EE50ED101EE0880EE66E000EE66E29EC2A
:102C100010F0E552E55204C014F005C015F006C0EE
:102C200016F007C017F0F50EDBCFE9FFF60EDBCF8D
:102C3000EAFF14C0EEFF15C0EEFF16C0EEFF17C08E
:102C4000EEFFD950F30FE96EFF0EDA20EA6EEE5078
:102C5000ED101EE09C0EE66E000EE66E29EC10F004
:102C6000E552E55204C014F005C015F006C016F098
:102C700007C017F0F30EDBCFE9FFF40EDBCFEAFF5E
:102C800014C0EEFF15C0EEFF16C0EEFF17C0EEFF3A
:102C9000040EE15C02E2E16AE552E16EE552E7CF43
:042CA000D9FF120046
:0C2CA400D9CFE6FFE1CFD9FF040EE126F6
:102CB000DE6ADE6ADE6ADD6ADD52DD52FD0EDBCFE2
:102CC000E9FFFE0EDBCFEAFF140EE926000EEA2232
:102CD000EECF14F0EECF15F0EECF16F0EFCF17F0E9
:102CE000FD0EDBCFE9FFFE0EDBCFEAFF080EE92683
:102CF000000EEA22EECF18F0EECF19F0EECF1AF068
:102D0000EFCF1BF018C00AF019C00BF01AC00CF07E
:102D10001BC00DF014C005F015C006F016C007F07A
:102D200017C008F045EC0FF0010A21E0FD0EDBCFE3
:102D3000E9FFFE0EDBCFEAFF100EE926000EEA22C5
:102D4000EECF14F0EECF15F0EECF16F0EFCF17F078
:102D5000FD0EDBCFE9FFFE0EDBCFEAFF14C0EEFF76
:102D600015C0EEFF16C0EEFF17C0EEFF58D0FD0EE7
:102D7000DBCFE9FFFE0EDBCFEAFF140EE926000EE3
:102D8000EA22EECF14F0EECF15F0EECF16F0EFCF33
:102D900017F0FD0EDBCFE9FFFE0EDBCFEAFF040EDE
:102DA000E926000EEA22EECF18F0EECF19F0EECFB2
:102DB0001AF0EFCF1BF018C00AF019C00BF01AC0C0
:102DC0000CF01BC00DF014C005F015C006F016C0C5
:102DD00007F017C008F03CEC0FF0010A20E0FD0EF0
:102DE000DBCFE9FFFE0EDBCFEAFF0C0EE926000E7B
:102DF000EA22EECF14F0EECF15F0EECF16F0EFCFC3
:102E000017F0FD0EDBCFE9FFFE0EDBCFEAFF14C0AB
:102E1000EEFF15C0EEFF16C0EEFF17C0EEFFFD0E71
:102E2000DBCFE9FFFE0EDBCFEAFFEECFDFFF010EC7
:102E3000EECFDBFF020EEECFDBFF030EEECFDBFFAC
:102E4000DECF04F0DECF05F0DECF06F0DDCF07F0F9
:102E5000DD52DD52040EE15C03E200D0E16AE5528E
:0A2E6000E16EE552E7CFD9FF120042
:062E6A000E0EF66E000ED4
:102E7000F76E000EF86E00010900F550F96F0900B9
:102E8000F550FA6F03E1F96701D03DD00900F55024
:102E9000F46F0900F550F56F0900F550F66F090061
:102EA0000900F550E96E0900F550EA6E09000900C5
:102EB0000900F550F76F0900F550F86F0900090097
:102EC000F6CFFBF0F7CFFCF0F8CFFDF0F4C0F6FF43
:102ED000F5C0F7FFF6C0F8FF0001F75302E1F85321
:102EE00007E00900F550EE6EF707F8E2F807F9D7AA
:102EF000FBC0F6FFFCC0F7FFFDC0F8FF0001F907BB
:082F0000000EFA5BBFD71200BE
:082F080013EE00F023EE00F0CF
:102F1000F86A0F9C35EC17F003EC00F006EC12F0A9
:042F2000FBD71200C9
:082F24000000803F3373D84325
:042F2C0000000000A1
:102F3000000000000000803F0000000000000000D2
:102F40000000803F00000000000000000000803F03
:102F500000000000000080C4000080440000000069
:102F60000000803F00000000000000000000803FE3
:102F70000000000000000000000000000000000051
:102F80000000000000C07F44000000000000C842B4
:102F9000000000000000000000C07F4400000000AE
:102FA0000000C84200000000000000000000C8420D
:102FB0000000000000C07F44000000000000C8C204
:102FC0000000000000C07F4400000000000000007E
:020000040030CA
:0100000024DB
:010001000EF0
:010002001EDF
:010003001EDE
:010005008179
:010006008178
:010008000FE8
:01000900C036
:01000A000FE6
:01000B00E014
:01000C000FE4
:01000D0040B2
:00000001FF
